:1000000017810000130101F01704000013044401DC
:10001000E70004006F00000013000000130101FC62
:10002000232E1102232C8102232A9102232821034B
:100030002326310323244103232251032320610378
:10004000232E7101232C8101232A91012328A10150
:1000500037840000930444D037850000130605D090
:100060003386C440B71500009385C5A2130505D09B
:10007000EF00002237860000130686D13306964033
:1000800093050000130544D0EF00C01E13050000C7
:10009000EF0080583715000013058594EF00403EAF
:1000A000378A0000B719000037190000B75A00005E
:1000B000938A0A00138B0A006F008007371500002F
:1000C00013054598EF00C03B6F008006B715000090
:1000D0009385859B37850000130545D0EF000028E8
:1000E00063120512371500001305059CEF00403917
:1000F0003784000093050000032504D0EF0040433F
:100100001385099DEF00C03783248AD1832B04D047
:1001100063C00B0A13040000930C2000130CF000C2
:10012000130D7000634E700B1385099DEF00403571
:100130003715000013050597EF0080343784000061
:10014000130544D0EF008037B71500009385C5979D
:10015000130544D0EF008020E31A05F6232C6AD162
:1001600013850A00EF00C053B787000023A0A7D073
:10017000232601000327C100B7C72D009387F76B23
:1001800063CEE700138707008327C100938717001A
:100190002326F1008327C100E358F7FEE34005F270
:1001A000371500001305C599EF00802D6FF05FF83B
:1001B000371500001305859CEF00802C6FF05FF76A
:1001C0001385099DEF00C02B6F00C0001305499DEA
:1001D000EF00002B1304140093841400E3868BF4C7
:1001E00093850C0003C50400EF0080349377F4007E
:1001F000E38887FDE39CA7FD1305499DEF00402898
:100200006FF0DFFCB71500009385859D37850000F2
:10021000130545D0EF0080146316050403258AD129
:10022000EF00806013040500630605023715000027
:100230001305859EEF00C0249305000013050400FC
:10024000EF00002F1385099DEF008023E7000400D5
:100250006FF01FEE371500001305C59DEF0040221B
:100260006FF01FED37150000130545A0EF0040218A
:100270006FF01FEC635CC0003306C50093070500F8
:1002800093871700A38FB7FEE31CF6FE678000007C
:100290006350C0023306C50093070500938717001B
:1002A0009385150003C7F5FFA38FE7FEE318F6FE5D
:1002B000678000006352C0048347050003C7050040
:1002C0003306C500639EE7001305150093851500EE
:1002D0006300C5028347050003C70500E386E7FE08
:1002E0003335F7001305F5FF13651500678000002F
:1002F0001305000067800000130500006780000000
:100300009306050083470500638E070093070500E9
:10031000938717003385D74003C70700E31A07FE0A
:1003200067800000130500006780000083C7050098
:100330002300F50083C705006380070293070500CB
:10034000938717009385150003C705002380E700F6
:1003500003C70500E31607FE678000006F00400139
:1003600003C705006390E702130515009385150088
:1003700083470500E39607FE03C70500630C0700EB
:1003800003C705003335F7001305F5FF13651500A6
:100390006780000013050000678000006F004002C6
:1003A0001305000067800000635AC00203C7050000
:1003B000639CE70213051500938515001306F6FFED
:1003C00083470500E39207FE03C70500E30A07FC25
:1003D000634AC00013050000678000001305000099
:1003E0006780000003C705003335F7001305F5FFEC
:1003F0001365150067800000130101FF232611001B
:1004000023248100130405009307A0006300F50274
:100410009305040013050000EF00801A8320C1003B
:100420000324810013010101678000009305D000BF
:1004300013050000EF00C0186FF09FFD130101FFCE
:10044000232611002324810013050000EF00C021A2
:10045000130405009307D0006300F50213050400A0
:10046000EFF09FF9130504008320C10003248100ED
:1004700013010101678000001304A0006FF01FFE4C
:10048000130101FF2326110023248100130405001A
:1004900003450500630A050013041400EFF0DFF5BF
:1004A00003450400E31A05FE130500008320C10084
:1004B000032481001301010167800000130101FE84
:1004C000232E1100232C8100232A910023282101AF
:1004D00023263101130905001304050093040000CD
:1004E0009309A0006F00800093840700EFF01FF5D0
:1004F000630C3501938714002300A4001304140037
:10050000E31405FE6F00C0003309990023000900C1
:10051000138504008320C101032481018324410148
:10052000032901018329C100130101026780000032
:10053000130101FE232E110023060100631605009E
:1005400063940500930510009307A10013060003B0
:10055000B7160000938606A16F0000021377F5001E
:100560003307D70003470700A380E7001355450072
:10057000639C05009387F7FF13871700E31005FEC0
:1005800063880500A380C7009385F5FF6FF09FFE89
:1005900013051700EFF0DFEE130500008320C10103
:1005A0001301010267800000B787000003A5470020
:1005B00013551500134515001375150067800000CD
:1005C000130101FF2326110023248100232291001F
:1005D000130405009384050013050400EFF0DFFC0D
:1005E000E30C05FEB787000023A497001305000065
:1005F0008320C100032481008324410013010101F1
:1006000067800000B787000003A547001345150069
:100610001375150067800000130101FF23261100E8
:10062000232481002322910013040500B747000012
:1006300093872711378700002320F70093040700D2
:100640006F00800083A7840013050400EFF09FFB78
:10065000E31A05FE8320C1000324810083244100A6
:100660001301010167800000130101FF232611001F
:10067000232481001304050013050400EFF09FF804
:10068000E30C05FEB787000003A587001375F50F7F
:100690008320C10003248100130101016780000051
:1006A000130101FC232E1102232C8102232A910223
:1006B000232821032326310323244103232251032A
:1006C00023206103232E7101232C8101232A910110
:1006D0002328A1012326B101130D0500930B10005F
:1006E000930C000093090000376C6202130A40006B
:1006F000930A8001138B0B00930DF00F6F00C00164
:1007000013050000EFF05FF6630E45036302551119
:1007100063006509639A090EE39409FE13040CA0B3
:1007200013050000EFF01FEEE31C05FC1304F4FFBB
:10073000E31804FE9305500113050000EFF05FE895
:100740006FF0DFFD9305600013050000EFF05FE739
:1007500013850C008320C1030324810383244103F8
:10076000032901038329C102032A8102832A41024A
:10077000032B0102832BC101032C8101832C410136
:10078000032D0101832DC1001301010467800000C6
:100790009389190013050000EFF01FED639EAB066F
:1007A00013050000EFF05FECB3C7AB0093F7F70F52
:1007B0006394B70713090D0813040D009304000098
:1007C00013050000EFF05FEA13041400A30FA4FE6A
:1007D000B304950093F4F40FE31424FF1305000011
:1007E000EFF09FE8639AA402938B1B0093FBFB0F2F
:1007F000938C0C089305600013050000EFF05FDC9C
:10080000130D04006FF05FF1930CF0FF6FF05FF4D5
:10081000930CF0FF6FF0DFF3930550011305000018
:10082000EFF01FDA6FF05FEF130101FE232E1100CE
:10083000232C8100232A9100232821012326310122
:100840009304050013064000B7150000938545A2E8
:10085000EFF05FA66316050C1309050003C74400FB
:10086000930710006312F70C03C754006312F70CD0
:1008700003C764006312F70C039704019307200079
:100880006310F70C83A744019387F7FF130500005B
:10089000639A07068397C4026354F0069309100015
:1008A0006F000001130919008397C402635AF90409
:1008B0000394A4023304240383A7C4013304F40083
:1008C0003384840083270400E39E37FD832544009E
:1008D00003260401B385B4000325C400EFF05F9B39
:1008E00083270401032644010325C4003306F64090
:1008F000930500003385A700EFF0DF976FF09FFAB4
:1009000003A584018320C1010324810183244101C3
:10091000032901018329C10013010102678000003E
:10092000130500006FF01FFE130500006FF09FFD20
:10093000130500006FF01FFD130500006FF09FFC12
:08094000130500006FF01FFC1D
:100948006B7A6C6F616420286B6F7A6F7320626FAB
:100958006F74206C6F61646572292073746172749E
:1009680065642E0A000000006B7A6C6F61643E209B
:10097800000000006C6F6164000000000A584D4FD1
:1009880044454D2072656365697665206572726FAE
:1009980072210A000A584D4F44454D20726563651F
:1009A800697665207375636365656465642E0A00FE
:1009B80064756D700000000073697A653A20000064
:1009C8006E6F20646174612E0A0000002000000030
:1009D80072756E0072756E206572726F72210A00F0
:1009E8007374617274696E672066726F6D20656ECC
:1009F80074727920706F696E743A2000756E6B6E30
:100A08006F776E2E0A0000003031323334353637B6
:100A18003839616263646566000000007F454C46B2
:040A280000000000CA
:040A2C00FFFFFFFFCA
:00000001FF
